{
  "_format": "hh-sol-artifact-1",
  "contractName": "Voting",
  "sourceName": "contracts/Voting.sol",
  "abi": [
    {
      "inputs": [
        {
          "internalType": "string",
          "name": "_title",
          "type": "string"
        }
      ],
      "stateMutability": "nonpayable",
      "type": "constructor"
    },
    {
      "anonymous": false,
      "inputs": [
        {
          "indexed": false,
          "internalType": "uint256",
          "name": "id",
          "type": "uint256"
        },
        {
          "indexed": false,
          "internalType": "string",
          "name": "name",
          "type": "string"
        },
        {
          "indexed": false,
          "internalType": "string",
          "name": "party",
          "type": "string"
        }
      ],
      "name": "CandidateRegistered",
      "type": "event"
    },
    {
      "anonymous": false,
      "inputs": [
        {
          "indexed": false,
          "internalType": "uint256",
          "name": "timestamp",
          "type": "uint256"
        },
        {
          "indexed": false,
          "internalType": "uint256",
          "name": "totalVotes",
          "type": "uint256"
        }
      ],
      "name": "ElectionEnded",
      "type": "event"
    },
    {
      "anonymous": false,
      "inputs": [
        {
          "indexed": false,
          "internalType": "string",
          "name": "title",
          "type": "string"
        },
        {
          "indexed": false,
          "internalType": "uint256",
          "name": "timestamp",
          "type": "uint256"
        }
      ],
      "name": "ElectionStarted",
      "type": "event"
    },
    {
      "anonymous": false,
      "inputs": [
        {
          "indexed": true,
          "internalType": "address",
          "name": "voter",
          "type": "address"
        },
        {
          "indexed": true,
          "internalType": "uint256",
          "name": "candidateId",
          "type": "uint256"
        },
        {
          "indexed": false,
          "internalType": "uint256",
          "name": "timestamp",
          "type": "uint256"
        }
      ],
      "name": "VoteCast",
      "type": "event"
    },
    {
      "anonymous": false,
      "inputs": [
        {
          "indexed": false,
          "internalType": "address",
          "name": "voter",
          "type": "address"
        }
      ],
      "name": "VoterAuthorized",
      "type": "event"
    },
    {
      "inputs": [
        {
          "internalType": "string",
          "name": "_name",
          "type": "string"
        },
        {
          "internalType": "string",
          "name": "_party",
          "type": "string"
        }
      ],
      "name": "addCandidate",
      "outputs": [],
      "stateMutability": "nonpayable",
      "type": "function"
    },
    {
      "inputs": [],
      "name": "admin",
      "outputs": [
        {
          "internalType": "address",
          "name": "",
          "type": "address"
        }
      ],
      "stateMutability": "view",
      "type": "function"
    },
    {
      "inputs": [
        {
          "internalType": "address",
          "name": "_voter",
          "type": "address"
        }
      ],
      "name": "authorizeVoter",
      "outputs": [],
      "stateMutability": "nonpayable",
      "type": "function"
    },
    {
      "inputs": [
        {
          "internalType": "address",
          "name": "",
          "type": "address"
        }
      ],
      "name": "authorizedVoters",
      "outputs": [
        {
          "internalType": "bool",
          "name": "",
          "type": "bool"
        }
      ],
      "stateMutability": "view",
      "type": "function"
    },
    {
      "inputs": [],
      "name": "candidateCount",
      "outputs": [
        {
          "internalType": "uint256",
          "name": "",
          "type": "uint256"
        }
      ],
      "stateMutability": "view",
      "type": "function"
    },
    {
      "inputs": [
        {
          "internalType": "uint256",
          "name": "",
          "type": "uint256"
        }
      ],
      "name": "candidates",
      "outputs": [
        {
          "internalType": "uint256",
          "name": "id",
          "type": "uint256"
        },
        {
          "internalType": "string",
          "name": "name",
          "type": "string"
        },
        {
          "internalType": "string",
          "name": "party",
          "type": "string"
        },
        {
          "internalType": "uint256",
          "name": "voteCount",
          "type": "uint256"
        }
      ],
      "stateMutability": "view",
      "type": "function"
    },
    {
      "inputs": [
        {
          "internalType": "uint256",
          "name": "_candidateId",
          "type": "uint256"
        }
      ],
      "name": "castVote",
      "outputs": [],
      "stateMutability": "nonpayable",
      "type": "function"
    },
    {
      "inputs": [],
      "name": "electionActive",
      "outputs": [
        {
          "internalType": "bool",
          "name": "",
          "type": "bool"
        }
      ],
      "stateMutability": "view",
      "type": "function"
    },
    {
      "inputs": [],
      "name": "electionTitle",
      "outputs": [
        {
          "internalType": "string",
          "name": "",
          "type": "string"
        }
      ],
      "stateMutability": "view",
      "type": "function"
    },
    {
      "inputs": [],
      "name": "endElection",
      "outputs": [],
      "stateMutability": "nonpayable",
      "type": "function"
    },
    {
      "inputs": [
        {
          "internalType": "uint256",
          "name": "_id",
          "type": "uint256"
        }
      ],
      "name": "getCandidate",
      "outputs": [
        {
          "internalType": "uint256",
          "name": "id",
          "type": "uint256"
        },
        {
          "internalType": "string",
          "name": "name",
          "type": "string"
        },
        {
          "internalType": "string",
          "name": "party",
          "type": "string"
        },
        {
          "internalType": "uint256",
          "name": "voteCount",
          "type": "uint256"
        }
      ],
      "stateMutability": "view",
      "type": "function"
    },
    {
      "inputs": [],
      "name": "getResults",
      "outputs": [
        {
          "internalType": "uint256[]",
          "name": "ids",
          "type": "uint256[]"
        },
        {
          "internalType": "string[]",
          "name": "names",
          "type": "string[]"
        },
        {
          "internalType": "uint256[]",
          "name": "voteCounts",
          "type": "uint256[]"
        }
      ],
      "stateMutability": "view",
      "type": "function"
    },
    {
      "inputs": [
        {
          "internalType": "address",
          "name": "_voter",
          "type": "address"
        }
      ],
      "name": "getVoterStatus",
      "outputs": [
        {
          "internalType": "bool",
          "name": "authorized",
          "type": "bool"
        },
        {
          "internalType": "bool",
          "name": "voted",
          "type": "bool"
        },
        {
          "internalType": "uint256",
          "name": "candidateIdVotedFor",
          "type": "uint256"
        }
      ],
      "stateMutability": "view",
      "type": "function"
    },
    {
      "inputs": [
        {
          "internalType": "address",
          "name": "",
          "type": "address"
        }
      ],
      "name": "hasVoted",
      "outputs": [
        {
          "internalType": "bool",
          "name": "",
          "type": "bool"
        }
      ],
      "stateMutability": "view",
      "type": "function"
    },
    {
      "inputs": [],
      "name": "startElection",
      "outputs": [],
      "stateMutability": "nonpayable",
      "type": "function"
    },
    {
      "inputs": [],
      "name": "totalVotes",
      "outputs": [
        {
          "internalType": "uint256",
          "name": "",
          "type": "uint256"
        }
      ],
      "stateMutability": "view",
      "type": "function"
    },
    {
      "inputs": [
        {
          "internalType": "address",
          "name": "",
          "type": "address"
        }
      ],
      "name": "votedFor",
      "outputs": [
        {
          "internalType": "uint256",
          "name": "",
          "type": "uint256"
        }
      ],
      "stateMutability": "view",
      "type": "function"
    }
  ],
  "bytecode": "0x60806040523480156200001157600080fd5b506040516200257b3803806200257b8339818101604052810190620000379190620001e4565b336000806101000a81548173ffffffffffffffffffffffffffffffffffffffff021916908373ffffffffffffffffffffffffffffffffffffffff16021790555080600190805190602001906200008f929190620000c2565b506000600260006101000a81548160ff02191690831515021790555060006003819055506000600481905550506200035a565b828054620000d090620002c6565b90600052602060002090601f016020900481019282620000f4576000855562000140565b82601f106200010f57805160ff191683800117855562000140565b8280016001018555821562000140579182015b828111156200013f57825182559160200191906001019062000122565b5b5090506200014f919062000153565b5090565b5b808211156200016e57600081600090555060010162000154565b5090565b60006200018962000183846200025d565b62000229565b905082815260208101848484011115620001a257600080fd5b620001af84828562000290565b509392505050565b600082601f830112620001c957600080fd5b8151620001db84826020860162000172565b91505092915050565b600060208284031215620001f757600080fd5b600082015167ffffffffffffffff8111156200021257600080fd5b6200022084828501620001b7565b91505092915050565b6000604051905081810181811067ffffffffffffffff821117156200025357620002526200032b565b5b8060405250919050565b600067ffffffffffffffff8211156200027b576200027a6200032b565b5b601f19601f8301169050602081019050919050565b60005b83811015620002b057808201518184015260208101905062000293565b83811115620002c0576000848401525b50505050565b60006002820490506001821680620002df57607f821691505b60208210811415620002f657620002f5620002fc565b5b50919050565b7f4e487b7100000000000000000000000000000000000000000000000000000000600052602260045260246000fd5b7f4e487b7100000000000000000000000000000000000000000000000000000000600052604160045260246000fd5b612211806200036a6000396000f3fe608060405234801561001057600080fd5b506004361061010b5760003560e01c806362d73eb8116100a2578063a9a981a311610071578063a9a981a3146102b0578063c546c3b2146102ce578063f594f13f146102ec578063f851a4401461031c578063fd47b3681461033a5761010b565b806362d73eb81461022657806366acfa4a1461023057806378e3ef20146102605780637ed628bb146102925761010b565b806335b8e820116100de57806335b8e820146101ad5780633eb76b9c146101e05780634717f97c146101fc57806359f784681461021c5761010b565b806309eef43e146101105780630d15fd771461014057806326541b561461015e5780633477ee2e1461017a575b600080fd5b61012a60048036038101906101259190611609565b610356565b6040516101379190611c01565b60405180910390f35b610148610376565b6040516101559190611de5565b60405180910390f35b61017860048036038101906101739190611632565b61037c565b005b610194600480360381019061018f919061169e565b61053d565b6040516101a49493929190611e45565b60405180910390f35b6101c760048036038101906101c2919061169e565b61067d565b6040516101d79493929190611e45565b60405180910390f35b6101fa60048036038101906101f5919061169e565b610852565b005b610204610b3d565b60405161021393929190611bb5565b60405180910390f35b610224610e88565b005b61022e610fbd565b005b61024a60048036038101906102459190611609565b611138565b6040516102579190611c01565b60405180910390f35b61027a60048036038101906102759190611609565b611158565b60405161028993929190611c1c565b60405180910390f35b61029a611244565b6040516102a79190611c01565b60405180910390f35b6102b8611257565b6040516102c59190611de5565b60405180910390f35b6102d661125d565b6040516102e39190611c53565b60405180910390f35b61030660048036038101906103019190611609565b6112eb565b6040516103139190611de5565b60405180910390f35b610324611303565b6040516103319190611b9a565b60405180910390f35b610354600480360381019061034f9190611609565b611327565b005b60076020528060005260406000206000915054906101000a900460ff1681565b60045481565b60008054906101000a900473ffffffffffffffffffffffffffffffffffffffff1673ffffffffffffffffffffffffffffffffffffffff163373ffffffffffffffffffffffffffffffffffffffff161461040a576040517f08c379a000000000000000000000000000000000000000000000000000000000815260040161040190611ce5565b60405180910390fd5b600260009054906101000a900460ff161561045a576040517f08c379a000000000000000000000000000000000000000000000000000000000815260040161045190611d85565b60405180910390fd5b6003600081548092919061046d906120c6565b91905055506040518060800160405280600354815260200183815260200182815260200160008152506005600060035481526020019081526020016000206000820151816000015560208201518160010190805190602001906104d19291906114d4565b5060408201518160020190805190602001906104ee9291906114d4565b50606082015181600301559050507f0ec1a365aeeec255796bf50d7a2a8f24d0d5f5c6ada0167b6c647428d9164582600354838360405161053193929190611e00565b60405180910390a15050565b600560205280600052604060002060009150905080600001549080600101805461056690612094565b80601f016020809104026020016040519081016040528092919081815260200182805461059290612094565b80156105df5780601f106105b4576101008083540402835291602001916105df565b820191906000526020600020905b8154815290600101906020018083116105c257829003601f168201915b5050505050908060020180546105f490612094565b80601f016020809104026020016040519081016040528092919081815260200182805461062090612094565b801561066d5780601f106106425761010080835404028352916020019161066d565b820191906000526020600020905b81548152906001019060200180831161065057829003601f168201915b5050505050908060030154905084565b60006060806000808511801561069557506003548511155b6106d4576040517f08c379a00000000000000000000000000000000000000000000000000000000081526004016106cb90611dc5565b60405180910390fd5b6000600560008781526020019081526020016000206040518060800160405290816000820154815260200160018201805461070e90612094565b80601f016020809104026020016040519081016040528092919081815260200182805461073a90612094565b80156107875780601f1061075c57610100808354040283529160200191610787565b820191906000526020600020905b81548152906001019060200180831161076a57829003601f168201915b505050505081526020016002820180546107a090612094565b80601f01602080910402602001604051908101604052809291908181526020018280546107cc90612094565b80156108195780601f106107ee57610100808354040283529160200191610819565b820191906000526020600020905b8154815290600101906020018083116107fc57829003601f168201915b50505050508152602001600382015481525050905080600001518160200151826040015183606001519450945094509450509193509193565b600260009054906101000a900460ff166108a1576040517f08c379a000000000000000000000000000000000000000000000000000000000815260040161089890611d25565b60405180910390fd5b600660003373ffffffffffffffffffffffffffffffffffffffff1673ffffffffffffffffffffffffffffffffffffffff16815260200190815260200160002060009054906101000a900460ff1661092d576040517f08c379a000000000000000000000000000000000000000000000000000000000815260040161092490611d05565b60405180910390fd5b600760003373ffffffffffffffffffffffffffffffffffffffff1673ffffffffffffffffffffffffffffffffffffffff16815260200190815260200160002060009054906101000a900460ff16156109ba576040517f08c379a00000000000000000000000000000000000000000000000000000000081526004016109b190611ca5565b60405180910390fd5b6000811180156109cc57506003548111155b610a0b576040517f08c379a0000000000000000000000000000000000000000000000000000000008152600401610a0290611d65565b60405180910390fd5b6001600760003373ffffffffffffffffffffffffffffffffffffffff1673ffffffffffffffffffffffffffffffffffffffff16815260200190815260200160002060006101000a81548160ff02191690831515021790555080600860003373ffffffffffffffffffffffffffffffffffffffff1673ffffffffffffffffffffffffffffffffffffffff16815260200190815260200160002081905550600560008281526020019081526020016000206003016000815480929190610ace906120c6565b919050555060046000815480929190610ae6906120c6565b9190505550803373ffffffffffffffffffffffffffffffffffffffff167fb4cfecf70861b7b150d8337780d34fb4cbc2114b5fb1fe51a5c5fca1849f727442604051610b329190611de5565b60405180910390a350565b606080606060035467ffffffffffffffff811115610b84577f4e487b7100000000000000000000000000000000000000000000000000000000600052604160045260246000fd5b604051908082528060200260200182016040528015610bb25781602001602082028036833780820191505090505b50925060035467ffffffffffffffff811115610bf7577f4e487b7100000000000000000000000000000000000000000000000000000000600052604160045260246000fd5b604051908082528060200260200182016040528015610c2a57816020015b6060815260200190600190039081610c155790505b50915060035467ffffffffffffffff811115610c6f577f4e487b7100000000000000000000000000000000000000000000000000000000600052604160045260246000fd5b604051908082528060200260200182016040528015610c9d5781602001602082028036833780820191505090505b5090506000600190505b6003548111610e8257600560008281526020019081526020016000206000015484600183610cd59190611fd6565b81518110610d0c577f4e487b7100000000000000000000000000000000000000000000000000000000600052603260045260246000fd5b602002602001018181525050600560008281526020019081526020016000206001018054610d3990612094565b80601f0160208091040260200160405190810160405280929190818152602001828054610d6590612094565b8015610db25780601f10610d8757610100808354040283529160200191610db2565b820191906000526020600020905b815481529060010190602001808311610d9557829003601f168201915b505050505083600183610dc59190611fd6565b81518110610dfc577f4e487b7100000000000000000000000000000000000000000000000000000000600052603260045260246000fd5b6020026020010181905250600560008281526020019081526020016000206003015482600183610e2c9190611fd6565b81518110610e63577f4e487b7100000000000000000000000000000000000000000000000000000000600052603260045260246000fd5b6020026020010181815250508080610e7a906120c6565b915050610ca7565b50909192565b60008054906101000a900473ffffffffffffffffffffffffffffffffffffffff1673ffffffffffffffffffffffffffffffffffffffff163373ffffffffffffffffffffffffffffffffffffffff1614610f16576040517f08c379a0000000000000000000000000000000000000000000000000000000008152600401610f0d90611ce5565b60405180910390fd5b600260009054906101000a900460ff16610f65576040517f08c379a0000000000000000000000000000000000000000000000000000000008152600401610f5c90611d25565b60405180910390fd5b6000600260006101000a81548160ff0219169083151502179055507f32e2c12037f9600b91a766ce53eab6909f3bdb865851cd9a8c7fafbdf249a9ce42600454604051610fb3929190611e98565b60405180910390a1565b60008054906101000a900473ffffffffffffffffffffffffffffffffffffffff1673ffffffffffffffffffffffffffffffffffffffff163373ffffffffffffffffffffffffffffffffffffffff161461104b576040517f08c379a000000000000000000000000000000000000000000000000000000000815260040161104290611ce5565b60405180910390fd5b600260009054906101000a900460ff161561109b576040517f08c379a000000000000000000000000000000000000000000000000000000000815260040161109290611cc5565b60405180910390fd5b600260035410156110e1576040517f08c379a00000000000000000000000000000000000000000000000000000000081526004016110d890611da5565b60405180910390fd5b6001600260006101000a81548160ff0219169083151502179055507f627fedc2c091c67f445c74dafa73901e80b09b2f142b1fc11fe75960202b41fd60014260405161112e929190611c75565b60405180910390a1565b60066020528060005260406000206000915054906101000a900460ff1681565b6000806000600660008573ffffffffffffffffffffffffffffffffffffffff1673ffffffffffffffffffffffffffffffffffffffff16815260200190815260200160002060009054906101000a900460ff16600760008673ffffffffffffffffffffffffffffffffffffffff1673ffffffffffffffffffffffffffffffffffffffff16815260200190815260200160002060009054906101000a900460ff16600860008773ffffffffffffffffffffffffffffffffffffffff1673ffffffffffffffffffffffffffffffffffffffff168152602001908152602001600020549250925092509193909250565b600260009054906101000a900460ff1681565b60035481565b6001805461126a90612094565b80601f016020809104026020016040519081016040528092919081815260200182805461129690612094565b80156112e35780601f106112b8576101008083540402835291602001916112e3565b820191906000526020600020905b8154815290600101906020018083116112c657829003601f168201915b505050505081565b60086020528060005260406000206000915090505481565b60008054906101000a900473ffffffffffffffffffffffffffffffffffffffff1681565b60008054906101000a900473ffffffffffffffffffffffffffffffffffffffff1673ffffffffffffffffffffffffffffffffffffffff163373ffffffffffffffffffffffffffffffffffffffff16146113b5576040517f08c379a00000000000000000000000000000000000000000000000000000000081526004016113ac90611ce5565b60405180910390fd5b600660008273ffffffffffffffffffffffffffffffffffffffff1673ffffffffffffffffffffffffffffffffffffffff16815260200190815260200160002060009054906101000a900460ff1615611442576040517f08c379a000000000000000000000000000000000000000000000000000000000815260040161143990611d45565b60405180910390fd5b6001600660008373ffffffffffffffffffffffffffffffffffffffff1673ffffffffffffffffffffffffffffffffffffffff16815260200190815260200160002060006101000a81548160ff0219169083151502179055507f0ca65a9f1f88bd7257ac852d1062853358f81cdc56f9634dcbeed6090f8dfb43816040516114c99190611b9a565b60405180910390a150565b8280546114e090612094565b90600052602060002090601f0160209004810192826115025760008555611549565b82601f1061151b57805160ff1916838001178555611549565b82800160010185558215611549579182015b8281111561154857825182559160200191906001019061152d565b5b509050611556919061155a565b5090565b5b8082111561157357600081600090555060010161155b565b5090565b600061158a61158584611ef2565b611ec1565b9050828152602081018484840111156115a257600080fd5b6115ad848285612052565b509392505050565b6000813590506115c4816121ad565b92915050565b600082601f8301126115db57600080fd5b81356115eb848260208601611577565b91505092915050565b600081359050611603816121c4565b92915050565b60006020828403121561161b57600080fd5b6000611629848285016115b5565b91505092915050565b6000806040838503121561164557600080fd5b600083013567ffffffffffffffff81111561165f57600080fd5b61166b858286016115ca565b925050602083013567ffffffffffffffff81111561168857600080fd5b611694858286016115ca565b9150509250929050565b6000602082840312156116b057600080fd5b60006116be848285016115f4565b91505092915050565b60006116d383836117e4565b905092915050565b60006116e78383611b7c565b60208301905092915050565b6116fc8161200a565b82525050565b600061170d82611f57565b6117178185611f92565b93508360208202850161172985611f22565b8060005b85811015611765578484038952815161174685826116c7565b945061175183611f78565b925060208a0199505060018101905061172d565b50829750879550505050505092915050565b600061178282611f62565b61178c8185611fa3565b935061179783611f32565b8060005b838110156117c85781516117af88826116db565b97506117ba83611f85565b92505060018101905061179b565b5085935050505092915050565b6117de8161201c565b82525050565b60006117ef82611f6d565b6117f98185611fb4565b9350611809818560208601612061565b6118128161219c565b840191505092915050565b600061182882611f6d565b6118328185611fc5565b9350611842818560208601612061565b61184b8161219c565b840191505092915050565b6000815461186381612094565b61186d8186611fc5565b94506001821660008114611888576001811461189a576118cd565b60ff19831686526020860193506118cd565b6118a385611f42565b60005b838110156118c5578154818901526001820191506020810190506118a6565b808801955050505b50505092915050565b60006118e3601783611fc5565b91507f596f75206861766520616c726561647920766f7465642e0000000000000000006000830152602082019050919050565b6000611923601883611fc5565b91507f456c656374696f6e20616c7265616479206163746976652e00000000000000006000830152602082019050919050565b6000611963601983611fc5565b91507f4f6e6c792061646d696e2063616e2063616c6c20746869732e000000000000006000830152602082019050919050565b60006119a3601f83611fc5565b91507f596f7520617265206e6f7420617574686f72697a656420746f20766f74652e006000830152602082019050919050565b60006119e3601783611fc5565b91507f456c656374696f6e206973206e6f74206163746976652e0000000000000000006000830152602082019050919050565b6000611a23601983611fc5565b91507f566f74657220616c726561647920617574686f72697a65642e000000000000006000830152602082019050919050565b6000611a63601283611fc5565b91507f496e76616c69642063616e6469646174652e00000000000000000000000000006000830152602082019050919050565b6000611aa3602c83611fc5565b91507f43616e6e6f74206164642063616e6469646174657320616674657220656c656360008301527f74696f6e207374617274732e00000000000000000000000000000000000000006020830152604082019050919050565b6000611b09601b83611fc5565b91507f4e656564206174206c6561737420322063616e646964617465732e00000000006000830152602082019050919050565b6000611b49601583611fc5565b91507f496e76616c69642063616e6469646174652049442e00000000000000000000006000830152602082019050919050565b611b8581612048565b82525050565b611b9481612048565b82525050565b6000602082019050611baf60008301846116f3565b92915050565b60006060820190508181036000830152611bcf8186611777565b90508181036020830152611be38185611702565b90508181036040830152611bf78184611777565b9050949350505050565b6000602082019050611c1660008301846117d5565b92915050565b6000606082019050611c3160008301866117d5565b611c3e60208301856117d5565b611c4b6040830184611b8b565b949350505050565b60006020820190508181036000830152611c6d818461181d565b905092915050565b60006040820190508181036000830152611c8f8185611856565b9050611c9e6020830184611b8b565b9392505050565b60006020820190508181036000830152611cbe816118d6565b9050919050565b60006020820190508181036000830152611cde81611916565b9050919050565b60006020820190508181036000830152611cfe81611956565b9050919050565b60006020820190508181036000830152611d1e81611996565b9050919050565b60006020820190508181036000830152611d3e816119d6565b9050919050565b60006020820190508181036000830152611d5e81611a16565b9050919050565b60006020820190508181036000830152611d7e81611a56565b9050919050565b60006020820190508181036000830152611d9e81611a96565b9050919050565b60006020820190508181036000830152611dbe81611afc565b9050919050565b60006020820190508181036000830152611dde81611b3c565b9050919050565b6000602082019050611dfa6000830184611b8b565b92915050565b6000606082019050611e156000830186611b8b565b8181036020830152611e27818561181d565b90508181036040830152611e3b818461181d565b9050949350505050565b6000608082019050611e5a6000830187611b8b565b8181036020830152611e6c818661181d565b90508181036040830152611e80818561181d565b9050611e8f6060830184611b8b565b95945050505050565b6000604082019050611ead6000830185611b8b565b611eba6020830184611b8b565b9392505050565b6000604051905081810181811067ffffffffffffffff82111715611ee857611ee761216d565b5b8060405250919050565b600067ffffffffffffffff821115611f0d57611f0c61216d565b5b601f19601f8301169050602081019050919050565b6000819050602082019050919050565b6000819050602082019050919050565b60008190508160005260206000209050919050565b600081519050919050565b600081519050919050565b600081519050919050565b6000602082019050919050565b6000602082019050919050565b600082825260208201905092915050565b600082825260208201905092915050565b600082825260208201905092915050565b600082825260208201905092915050565b6000611fe182612048565b9150611fec83612048565b925082821015611fff57611ffe61210f565b5b828203905092915050565b600061201582612028565b9050919050565b60008115159050919050565b600073ffffffffffffffffffffffffffffffffffffffff82169050919050565b6000819050919050565b82818337600083830152505050565b60005b8381101561207f578082015181840152602081019050612064565b8381111561208e576000848401525b50505050565b600060028204905060018216806120ac57607f821691505b602082108114156120c0576120bf61213e565b5b50919050565b60006120d182612048565b91507fffffffffffffffffffffffffffffffffffffffffffffffffffffffffffffffff8214156121045761210361210f565b5b600182019050919050565b7f4e487b7100000000000000000000000000000000000000000000000000000000600052601160045260246000fd5b7f4e487b7100000000000000000000000000000000000000000000000000000000600052602260045260246000fd5b7f4e487b7100000000000000000000000000000000000000000000000000000000600052604160045260246000fd5b6000601f19601f8301169050919050565b6121b68161200a565b81146121c157600080fd5b50565b6121cd81612048565b81146121d857600080fd5b5056fea2646970667358221220bbfce4a730b4758ccffcb984824f7f893abd0937e464e9644cbd3a256f5a0c5b64736f6c63430008000033",
  "linkReferences": {},
  "deployedLinkReferences": {}
}