{
  "_format": "hh-sol-artifact-1",
  "contractName": "Voting",
  "sourceName": "contracts/Voting.sol",
  "abi": [
    {
      "inputs": [
        {
          "internalType": "string",
          "name": "_title",
          "type": "string"
        }
      ],
      "stateMutability": "nonpayable",
      "type": "constructor"
    },
    {
      "anonymous": false,
      "inputs": [
        {
          "indexed": false,
          "internalType": "uint256",
          "name": "id",
          "type": "uint256"
        },
        {
          "indexed": false,
          "internalType": "string",
          "name": "name",
          "type": "string"
        },
        {
          "indexed": false,
          "internalType": "string",
          "name": "party",
          "type": "string"
        }
      ],
      "name": "CandidateRegistered",
      "type": "event"
    },
    {
      "anonymous": false,
      "inputs": [
        {
          "indexed": false,
          "internalType": "enum Voting.Phase",
          "name": "newPhase",
          "type": "uint8"
        },
        {
          "indexed": false,
          "internalType": "uint256",
          "name": "timestamp",
          "type": "uint256"
        }
      ],
      "name": "PhaseChanged",
      "type": "event"
    },
    {
      "anonymous": false,
      "inputs": [
        {
          "indexed": true,
          "internalType": "address",
          "name": "voter",
          "type": "address"
        },
        {
          "indexed": true,
          "internalType": "uint256",
          "name": "candidateId",
          "type": "uint256"
        },
        {
          "indexed": false,
          "internalType": "uint256",
          "name": "timestamp",
          "type": "uint256"
        }
      ],
      "name": "VoteCast",
      "type": "event"
    },
    {
      "anonymous": false,
      "inputs": [
        {
          "indexed": false,
          "internalType": "address",
          "name": "voter",
          "type": "address"
        },
        {
          "indexed": false,
          "internalType": "string",
          "name": "name",
          "type": "string"
        }
      ],
      "name": "VoterAuthorized",
      "type": "event"
    },
    {
      "inputs": [
        {
          "internalType": "string",
          "name": "_name",
          "type": "string"
        },
        {
          "internalType": "string",
          "name": "_party",
          "type": "string"
        }
      ],
      "name": "addCandidate",
      "outputs": [],
      "stateMutability": "nonpayable",
      "type": "function"
    },
    {
      "inputs": [],
      "name": "admin",
      "outputs": [
        {
          "internalType": "address",
          "name": "",
          "type": "address"
        }
      ],
      "stateMutability": "view",
      "type": "function"
    },
    {
      "inputs": [
        {
          "internalType": "address",
          "name": "_voter",
          "type": "address"
        },
        {
          "internalType": "string",
          "name": "_name",
          "type": "string"
        },
        {
          "internalType": "string",
          "name": "_aadharLast4",
          "type": "string"
        }
      ],
      "name": "authorizeVoter",
      "outputs": [],
      "stateMutability": "nonpayable",
      "type": "function"
    },
    {
      "inputs": [],
      "name": "authorizedVoterCount",
      "outputs": [
        {
          "internalType": "uint256",
          "name": "",
          "type": "uint256"
        }
      ],
      "stateMutability": "view",
      "type": "function"
    },
    {
      "inputs": [],
      "name": "candidateCount",
      "outputs": [
        {
          "internalType": "uint256",
          "name": "",
          "type": "uint256"
        }
      ],
      "stateMutability": "view",
      "type": "function"
    },
    {
      "inputs": [
        {
          "internalType": "uint256",
          "name": "",
          "type": "uint256"
        }
      ],
      "name": "candidates",
      "outputs": [
        {
          "internalType": "uint256",
          "name": "id",
          "type": "uint256"
        },
        {
          "internalType": "string",
          "name": "name",
          "type": "string"
        },
        {
          "internalType": "string",
          "name": "party",
          "type": "string"
        },
        {
          "internalType": "uint256",
          "name": "voteCount",
          "type": "uint256"
        }
      ],
      "stateMutability": "view",
      "type": "function"
    },
    {
      "inputs": [
        {
          "internalType": "uint256",
          "name": "_candidateId",
          "type": "uint256"
        }
      ],
      "name": "castVote",
      "outputs": [],
      "stateMutability": "nonpayable",
      "type": "function"
    },
    {
      "inputs": [],
      "name": "currentPhase",
      "outputs": [
        {
          "internalType": "enum Voting.Phase",
          "name": "",
          "type": "uint8"
        }
      ],
      "stateMutability": "view",
      "type": "function"
    },
    {
      "inputs": [],
      "name": "electionTitle",
      "outputs": [
        {
          "internalType": "string",
          "name": "",
          "type": "string"
        }
      ],
      "stateMutability": "view",
      "type": "function"
    },
    {
      "inputs": [],
      "name": "endVoting",
      "outputs": [],
      "stateMutability": "nonpayable",
      "type": "function"
    },
    {
      "inputs": [
        {
          "internalType": "uint256",
          "name": "_id",
          "type": "uint256"
        }
      ],
      "name": "getCandidate",
      "outputs": [
        {
          "internalType": "uint256",
          "name": "id",
          "type": "uint256"
        },
        {
          "internalType": "string",
          "name": "name",
          "type": "string"
        },
        {
          "internalType": "string",
          "name": "party",
          "type": "string"
        },
        {
          "internalType": "uint256",
          "name": "voteCount",
          "type": "uint256"
        }
      ],
      "stateMutability": "view",
      "type": "function"
    },
    {
      "inputs": [],
      "name": "getPhase",
      "outputs": [
        {
          "internalType": "uint8",
          "name": "",
          "type": "uint8"
        }
      ],
      "stateMutability": "view",
      "type": "function"
    },
    {
      "inputs": [],
      "name": "getResults",
      "outputs": [
        {
          "internalType": "uint256[]",
          "name": "ids",
          "type": "uint256[]"
        },
        {
          "internalType": "string[]",
          "name": "names",
          "type": "string[]"
        },
        {
          "internalType": "uint256[]",
          "name": "voteCounts",
          "type": "uint256[]"
        }
      ],
      "stateMutability": "view",
      "type": "function"
    },
    {
      "inputs": [
        {
          "internalType": "address",
          "name": "_voter",
          "type": "address"
        }
      ],
      "name": "getVoterStatus",
      "outputs": [
        {
          "internalType": "bool",
          "name": "authorized",
          "type": "bool"
        },
        {
          "internalType": "bool",
          "name": "voted",
          "type": "bool"
        },
        {
          "internalType": "uint256",
          "name": "candidateIdVotedFor",
          "type": "uint256"
        },
        {
          "internalType": "string",
          "name": "voterName",
          "type": "string"
        },
        {
          "internalType": "string",
          "name": "aadharLast4",
          "type": "string"
        }
      ],
      "stateMutability": "view",
      "type": "function"
    },
    {
      "inputs": [],
      "name": "getWinner",
      "outputs": [
        {
          "internalType": "string",
          "name": "name",
          "type": "string"
        },
        {
          "internalType": "string",
          "name": "party",
          "type": "string"
        },
        {
          "internalType": "uint256",
          "name": "voteCount",
          "type": "uint256"
        }
      ],
      "stateMutability": "view",
      "type": "function"
    },
    {
      "inputs": [],
      "name": "startVoting",
      "outputs": [],
      "stateMutability": "nonpayable",
      "type": "function"
    },
    {
      "inputs": [],
      "name": "totalVotes",
      "outputs": [
        {
          "internalType": "uint256",
          "name": "",
          "type": "uint256"
        }
      ],
      "stateMutability": "view",
      "type": "function"
    },
    {
      "inputs": [
        {
          "internalType": "address",
          "name": "",
          "type": "address"
        }
      ],
      "name": "voters",
      "outputs": [
        {
          "internalType": "bool",
          "name": "authorized",
          "type": "bool"
        },
        {
          "internalType": "bool",
          "name": "voted",
          "type": "bool"
        },
        {
          "internalType": "uint256",
          "name": "votedFor",
          "type": "uint256"
        },
        {
          "internalType": "string",
          "name": "voterName",
          "type": "string"
        },
        {
          "internalType": "string",
          "name": "aadharLast4",
          "type": "string"
        }
      ],
      "stateMutability": "view",
      "type": "function"
    }
  ],
  "bytecode": "0x60806040523480156200001157600080fd5b5060405162002f4638038062002f46833981810160405281019062000037919062000223565b336000806101000a81548173ffffffffffffffffffffffffffffffffffffffff021916908373ffffffffffffffffffffffffffffffffffffffff16021790555080600190805190602001906200008f92919062000101565b506000600260006101000a81548160ff02191690836002811115620000dd577f4e487b7100000000000000000000000000000000000000000000000000000000600052602160045260246000fd5b02179055506000600381905550600060048190555060006005819055505062000399565b8280546200010f9062000305565b90600052602060002090601f0160209004810192826200013357600085556200017f565b82601f106200014e57805160ff19168380011785556200017f565b828001600101855582156200017f579182015b828111156200017e57825182559160200191906001019062000161565b5b5090506200018e919062000192565b5090565b5b80821115620001ad57600081600090555060010162000193565b5090565b6000620001c8620001c2846200029c565b62000268565b905082815260208101848484011115620001e157600080fd5b620001ee848285620002cf565b509392505050565b600082601f8301126200020857600080fd5b81516200021a848260208601620001b1565b91505092915050565b6000602082840312156200023657600080fd5b600082015167ffffffffffffffff8111156200025157600080fd5b6200025f84828501620001f6565b91505092915050565b6000604051905081810181811067ffffffffffffffff821117156200029257620002916200036a565b5b8060405250919050565b600067ffffffffffffffff821115620002ba57620002b96200036a565b5b601f19601f8301169050602081019050919050565b60005b83811015620002ef578082015181840152602081019050620002d2565b83811115620002ff576000848401525b50505050565b600060028204905060018216806200031e57607f821691505b602082108114156200033557620003346200033b565b5b50919050565b7f4e487b7100000000000000000000000000000000000000000000000000000000600052602260045260246000fd5b7f4e487b7100000000000000000000000000000000000000000000000000000000600052604160045260246000fd5b612b9d80620003a96000396000f3fe608060405234801561001057600080fd5b50600436106101165760003560e01c806378e3ef20116100a2578063c3403ddf11610071578063c3403ddf146102e3578063c546c3b2146102ed578063e8a5cc5b1461030b578063eced028014610327578063f851a4401461034557610116565b806378e3ef201461023d5780638e7ea5b214610271578063a3ec138d14610291578063a9a981a3146102c557610116565b806326541b56116100e957806326541b561461017f5780633477ee2e1461019b57806335b8e820146101ce5780633eb76b9c146102015780634717f97c1461021d57610116565b8063055ad42e1461011b5780630d15fd77146101395780630f5910b8146101575780631ec6b60a14610175575b600080fd5b610123610363565b6040516101309190612534565b60405180910390f35b610141610376565b60405161014e919061271f565b60405180910390f35b61015f61037c565b60405161016c919061271f565b60405180910390f35b61017d610382565b005b61019960048036038101906101949190611f36565b6105ed565b005b6101b560048036038101906101b09190611fa2565b610822565b6040516101c5949392919061277f565b60405180910390f35b6101e860048036038101906101e39190611fa2565b610962565b6040516101f8949392919061277f565b60405180910390f35b61021b60048036038101906102169190611fa2565b610b37565b005b610225610ea3565b60405161023493929190612487565b60405180910390f35b61025760048036038101906102529190611e8e565b6111ee565b6040516102689594939291906124d3565b60405180910390f35b6102796113d5565b6040516102889392919061259a565b60405180910390f35b6102ab60048036038101906102a69190611e8e565b6116ac565b6040516102bc9594939291906124d3565b60405180910390f35b6102cd61180c565b6040516102da919061271f565b60405180910390f35b6102eb611812565b005b6102f56119f0565b6040516103029190612578565b60405180910390f35b61032560048036038101906103209190611eb7565b611a7e565b005b61032f611ce6565b60405161033c91906127d2565b60405180910390f35b61034d611d35565b60405161035a919061243c565b60405180910390f35b600260009054906101000a900460ff1681565b60045481565b60055481565b60008054906101000a900473ffffffffffffffffffffffffffffffffffffffff1673ffffffffffffffffffffffffffffffffffffffff163373ffffffffffffffffffffffffffffffffffffffff1614610410576040517f08c379a00000000000000000000000000000000000000000000000000000000081526004016104079061263f565b60405180910390fd5b600080600281111561044b577f4e487b7100000000000000000000000000000000000000000000000000000000600052602160045260246000fd5b600260009054906101000a900460ff166002811115610493577f4e487b7100000000000000000000000000000000000000000000000000000000600052602160045260246000fd5b146104d3576040517f08c379a00000000000000000000000000000000000000000000000000000000081526004016104ca906126df565b60405180910390fd5b60026003541015610519576040517f08c379a0000000000000000000000000000000000000000000000000000000008152600401610510906126bf565b60405180910390fd5b6001600554101561055f576040517f08c379a00000000000000000000000000000000000000000000000000000000081526004016105569061265f565b60405180910390fd5b6001600260006101000a81548160ff021916908360028111156105ab577f4e487b7100000000000000000000000000000000000000000000000000000000600052602160045260246000fd5b02179055507fe65264342b0c60a079c9c89c73855ac517088348498810186d8c8ae6c7848ba16001426040516105e292919061254f565b60405180910390a150565b60008054906101000a900473ffffffffffffffffffffffffffffffffffffffff1673ffffffffffffffffffffffffffffffffffffffff163373ffffffffffffffffffffffffffffffffffffffff161461067b576040517f08c379a00000000000000000000000000000000000000000000000000000000081526004016106729061263f565b60405180910390fd5b60008060028111156106b6577f4e487b7100000000000000000000000000000000000000000000000000000000600052602160045260246000fd5b600260009054906101000a900460ff1660028111156106fe577f4e487b7100000000000000000000000000000000000000000000000000000000600052602160045260246000fd5b1461073e576040517f08c379a0000000000000000000000000000000000000000000000000000000008152600401610735906126df565b60405180910390fd5b6003600081548092919061075190612a0f565b91905055506040518060800160405280600354815260200184815260200183815260200160008152506006600060035481526020019081526020016000206000820151816000015560208201518160010190805190602001906107b5929190611d59565b5060408201518160020190805190602001906107d2929190611d59565b50606082015181600301559050507f0ec1a365aeeec255796bf50d7a2a8f24d0d5f5c6ada0167b6c647428d916458260035484846040516108159392919061273a565b60405180910390a1505050565b600660205280600052604060002060009150905080600001549080600101805461084b906129dd565b80601f0160208091040260200160405190810160405280929190818152602001828054610877906129dd565b80156108c45780601f10610899576101008083540402835291602001916108c4565b820191906000526020600020905b8154815290600101906020018083116108a757829003601f168201915b5050505050908060020180546108d9906129dd565b80601f0160208091040260200160405190810160405280929190818152602001828054610905906129dd565b80156109525780601f1061092757610100808354040283529160200191610952565b820191906000526020600020905b81548152906001019060200180831161093557829003601f168201915b5050505050908060030154905084565b60006060806000808511801561097a57506003548511155b6109b9576040517f08c379a00000000000000000000000000000000000000000000000000000000081526004016109b0906126ff565b60405180910390fd5b600060066000878152602001908152602001600020604051806080016040529081600082015481526020016001820180546109f3906129dd565b80601f0160208091040260200160405190810160405280929190818152602001828054610a1f906129dd565b8015610a6c5780601f10610a4157610100808354040283529160200191610a6c565b820191906000526020600020905b815481529060010190602001808311610a4f57829003601f168201915b50505050508152602001600282018054610a85906129dd565b80601f0160208091040260200160405190810160405280929190818152602001828054610ab1906129dd565b8015610afe5780601f10610ad357610100808354040283529160200191610afe565b820191906000526020600020905b815481529060010190602001808311610ae157829003601f168201915b50505050508152602001600382015481525050905080600001518160200151826040015183606001519450945094509450509193509193565b6001806002811115610b72577f4e487b7100000000000000000000000000000000000000000000000000000000600052602160045260246000fd5b600260009054906101000a900460ff166002811115610bba577f4e487b7100000000000000000000000000000000000000000000000000000000600052602160045260246000fd5b14610bfa576040517f08c379a0000000000000000000000000000000000000000000000000000000008152600401610bf1906126df565b60405180910390fd5b600760003373ffffffffffffffffffffffffffffffffffffffff1673ffffffffffffffffffffffffffffffffffffffff16815260200190815260200160002060000160009054906101000a900460ff16610c89576040517f08c379a0000000000000000000000000000000000000000000000000000000008152600401610c80906125df565b60405180910390fd5b600760003373ffffffffffffffffffffffffffffffffffffffff1673ffffffffffffffffffffffffffffffffffffffff16815260200190815260200160002060000160019054906101000a900460ff1615610d19576040517f08c379a0000000000000000000000000000000000000000000000000000000008152600401610d109061261f565b60405180910390fd5b600082118015610d2b57506003548211155b610d6a576040517f08c379a0000000000000000000000000000000000000000000000000000000008152600401610d619061269f565b60405180910390fd5b6001600760003373ffffffffffffffffffffffffffffffffffffffff1673ffffffffffffffffffffffffffffffffffffffff16815260200190815260200160002060000160016101000a81548160ff02191690831515021790555081600760003373ffffffffffffffffffffffffffffffffffffffff1673ffffffffffffffffffffffffffffffffffffffff16815260200190815260200160002060010181905550600660008381526020019081526020016000206003016000815480929190610e3390612a0f565b919050555060046000815480929190610e4b90612a0f565b9190505550813373ffffffffffffffffffffffffffffffffffffffff167fb4cfecf70861b7b150d8337780d34fb4cbc2114b5fb1fe51a5c5fca1849f727442604051610e97919061271f565b60405180910390a35050565b606080606060035467ffffffffffffffff811115610eea577f4e487b7100000000000000000000000000000000000000000000000000000000600052604160045260246000fd5b604051908082528060200260200182016040528015610f185781602001602082028036833780820191505090505b50925060035467ffffffffffffffff811115610f5d577f4e487b7100000000000000000000000000000000000000000000000000000000600052604160045260246000fd5b604051908082528060200260200182016040528015610f9057816020015b6060815260200190600190039081610f7b5790505b50915060035467ffffffffffffffff811115610fd5577f4e487b7100000000000000000000000000000000000000000000000000000000600052604160045260246000fd5b6040519080825280602002602001820160405280156110035781602001602082028036833780820191505090505b5090506000600190505b60035481116111e85760066000828152602001908152602001600020600001548460018361103b91906128ed565b81518110611072577f4e487b7100000000000000000000000000000000000000000000000000000000600052603260045260246000fd5b60200260200101818152505060066000828152602001908152602001600020600101805461109f906129dd565b80601f01602080910402602001604051908101604052809291908181526020018280546110cb906129dd565b80156111185780601f106110ed57610100808354040283529160200191611118565b820191906000526020600020905b8154815290600101906020018083116110fb57829003601f168201915b50505050508360018361112b91906128ed565b81518110611162577f4e487b7100000000000000000000000000000000000000000000000000000000600052603260045260246000fd5b602002602001018190525060066000828152602001908152602001600020600301548260018361119291906128ed565b815181106111c9577f4e487b7100000000000000000000000000000000000000000000000000000000600052603260045260246000fd5b60200260200101818152505080806111e090612a0f565b91505061100d565b50909192565b60008060006060806000600760008873ffffffffffffffffffffffffffffffffffffffff1673ffffffffffffffffffffffffffffffffffffffff1681526020019081526020016000206040518060a00160405290816000820160009054906101000a900460ff161515151581526020016000820160019054906101000a900460ff1615151515815260200160018201548152602001600282018054611292906129dd565b80601f01602080910402602001604051908101604052809291908181526020018280546112be906129dd565b801561130b5780601f106112e05761010080835404028352916020019161130b565b820191906000526020600020905b8154815290600101906020018083116112ee57829003601f168201915b50505050508152602001600382018054611324906129dd565b80601f0160208091040260200160405190810160405280929190818152602001828054611350906129dd565b801561139d5780601f106113725761010080835404028352916020019161139d565b820191906000526020600020905b81548152906001019060200180831161138057829003601f168201915b505050505081525050905080600001518160200151826040015183606001518460800151955095509550955095505091939590929450565b60608060006002806002811115611415577f4e487b7100000000000000000000000000000000000000000000000000000000600052602160045260246000fd5b600260009054906101000a900460ff16600281111561145d577f4e487b7100000000000000000000000000000000000000000000000000000000600052602160045260246000fd5b1461149d576040517f08c379a0000000000000000000000000000000000000000000000000000000008152600401611494906126df565b60405180910390fd5b6000600454116114e2576040517f08c379a00000000000000000000000000000000000000000000000000000000081526004016114d99061267f565b60405180910390fd5b6000600190506000600290505b600354811161154357600660008381526020019081526020016000206003015460066000838152602001908152602001600020600301541115611530578091505b808061153b90612a0f565b9150506114ef565b5060066000828152602001908152602001600020600101600660008381526020019081526020016000206002016006600084815260200190815260200160002060030154828054611593906129dd565b80601f01602080910402602001604051908101604052809291908181526020018280546115bf906129dd565b801561160c5780601f106115e15761010080835404028352916020019161160c565b820191906000526020600020905b8154815290600101906020018083116115ef57829003601f168201915b5050505050925081805461161f906129dd565b80601f016020809104026020016040519081016040528092919081815260200182805461164b906129dd565b80156116985780601f1061166d57610100808354040283529160200191611698565b820191906000526020600020905b81548152906001019060200180831161167b57829003601f168201915b505050505091509450945094505050909192565b60076020528060005260406000206000915090508060000160009054906101000a900460ff16908060000160019054906101000a900460ff16908060010154908060020180546116fb906129dd565b80601f0160208091040260200160405190810160405280929190818152602001828054611727906129dd565b80156117745780601f1061174957610100808354040283529160200191611774565b820191906000526020600020905b81548152906001019060200180831161175757829003601f168201915b505050505090806003018054611789906129dd565b80601f01602080910402602001604051908101604052809291908181526020018280546117b5906129dd565b80156118025780601f106117d757610100808354040283529160200191611802565b820191906000526020600020905b8154815290600101906020018083116117e557829003601f168201915b5050505050905085565b60035481565b60008054906101000a900473ffffffffffffffffffffffffffffffffffffffff1673ffffffffffffffffffffffffffffffffffffffff163373ffffffffffffffffffffffffffffffffffffffff16146118a0576040517f08c379a00000000000000000000000000000000000000000000000000000000081526004016118979061263f565b60405180910390fd5b60018060028111156118db577f4e487b7100000000000000000000000000000000000000000000000000000000600052602160045260246000fd5b600260009054906101000a900460ff166002811115611923577f4e487b7100000000000000000000000000000000000000000000000000000000600052602160045260246000fd5b14611963576040517f08c379a000000000000000000000000000000000000000000000000000000000815260040161195a906126df565b60405180910390fd5b60028060006101000a81548160ff021916908360028111156119ae577f4e487b7100000000000000000000000000000000000000000000000000000000600052602160045260246000fd5b02179055507fe65264342b0c60a079c9c89c73855ac517088348498810186d8c8ae6c7848ba16002426040516119e592919061254f565b60405180910390a150565b600180546119fd906129dd565b80601f0160208091040260200160405190810160405280929190818152602001828054611a29906129dd565b8015611a765780601f10611a4b57610100808354040283529160200191611a76565b820191906000526020600020905b815481529060010190602001808311611a5957829003601f168201915b505050505081565b60008054906101000a900473ffffffffffffffffffffffffffffffffffffffff1673ffffffffffffffffffffffffffffffffffffffff163373ffffffffffffffffffffffffffffffffffffffff1614611b0c576040517f08c379a0000000000000000000000000000000000000000000000000000000008152600401611b039061263f565b60405180910390fd5b600760008473ffffffffffffffffffffffffffffffffffffffff1673ffffffffffffffffffffffffffffffffffffffff16815260200190815260200160002060000160009054906101000a900460ff1615611b9c576040517f08c379a0000000000000000000000000000000000000000000000000000000008152600401611b93906125ff565b60405180910390fd5b6040518060a001604052806001151581526020016000151581526020016000815260200183815260200182815250600760008573ffffffffffffffffffffffffffffffffffffffff1673ffffffffffffffffffffffffffffffffffffffff16815260200190815260200160002060008201518160000160006101000a81548160ff02191690831515021790555060208201518160000160016101000a81548160ff021916908315150217905550604082015181600101556060820151816002019080519060200190611c6f929190611d59565b506080820151816003019080519060200190611c8c929190611d59565b5090505060056000815480929190611ca390612a0f565b91905055507f2945e915866a6db1b807fbc4b6bed730e5eb2c1293959f6bdc2baa851ef968098383604051611cd9929190612457565b60405180910390a1505050565b6000600260009054906101000a900460ff166002811115611d30577f4e487b7100000000000000000000000000000000000000000000000000000000600052602160045260246000fd5b905090565b60008054906101000a900473ffffffffffffffffffffffffffffffffffffffff1681565b828054611d65906129dd565b90600052602060002090601f016020900481019282611d875760008555611dce565b82601f10611da057805160ff1916838001178555611dce565b82800160010185558215611dce579182015b82811115611dcd578251825591602001919060010190611db2565b5b509050611ddb9190611ddf565b5090565b5b80821115611df8576000816000905550600101611de0565b5090565b6000611e0f611e0a8461281e565b6127ed565b905082815260208101848484011115611e2757600080fd5b611e3284828561299b565b509392505050565b600081359050611e4981612b39565b92915050565b600082601f830112611e6057600080fd5b8135611e70848260208601611dfc565b91505092915050565b600081359050611e8881612b50565b92915050565b600060208284031215611ea057600080fd5b6000611eae84828501611e3a565b91505092915050565b600080600060608486031215611ecc57600080fd5b6000611eda86828701611e3a565b935050602084013567ffffffffffffffff811115611ef757600080fd5b611f0386828701611e4f565b925050604084013567ffffffffffffffff811115611f2057600080fd5b611f2c86828701611e4f565b9150509250925092565b60008060408385031215611f4957600080fd5b600083013567ffffffffffffffff811115611f6357600080fd5b611f6f85828601611e4f565b925050602083013567ffffffffffffffff811115611f8c57600080fd5b611f9885828601611e4f565b9150509250929050565b600060208284031215611fb457600080fd5b6000611fc284828501611e79565b91505092915050565b6000611fd783836120f7565b905092915050565b6000611feb838361240f565b60208301905092915050565b61200081612921565b82525050565b60006120118261286e565b61201b81856128a9565b93508360208202850161202d8561284e565b8060005b85811015612069578484038952815161204a8582611fcb565b94506120558361288f565b925060208a01995050600181019050612031565b50829750879550505050505092915050565b600061208682612879565b61209081856128ba565b935061209b8361285e565b8060005b838110156120cc5781516120b38882611fdf565b97506120be8361289c565b92505060018101905061209f565b5085935050505092915050565b6120e281612933565b82525050565b6120f181612989565b82525050565b600061210282612884565b61210c81856128cb565b935061211c8185602086016129aa565b61212581612b14565b840191505092915050565b600061213b82612884565b61214581856128dc565b93506121558185602086016129aa565b61215e81612b14565b840191505092915050565b60006121766017836128dc565b91507f4e6f7420617574686f72697a656420746f20766f74652e0000000000000000006000830152602082019050919050565b60006121b66013836128dc565b91507f416c726561647920617574686f72697a65642e000000000000000000000000006000830152602082019050919050565b60006121f6600e836128dc565b91507f416c726561647920766f7465642e0000000000000000000000000000000000006000830152602082019050919050565b60006122366019836128dc565b91507f4f6e6c792061646d696e2063616e2063616c6c20746869732e000000000000006000830152602082019050919050565b60006122766021836128dc565b91507f4e656564206174206c65617374203120617574686f72697a656420766f74657260008301527f2e000000000000000000000000000000000000000000000000000000000000006020830152604082019050919050565b60006122dc600e836128dc565b91507f4e6f20766f74657320636173742e0000000000000000000000000000000000006000830152602082019050919050565b600061231c6012836128dc565b91507f496e76616c69642063616e6469646174652e00000000000000000000000000006000830152602082019050919050565b600061235c601b836128dc565b91507f4e656564206174206c6561737420322063616e646964617465732e00000000006000830152602082019050919050565b600061239c6015836128dc565b91507f57726f6e6720656c656374696f6e2070686173652e00000000000000000000006000830152602082019050919050565b60006123dc6015836128dc565b91507f496e76616c69642063616e6469646174652049442e00000000000000000000006000830152602082019050919050565b61241881612972565b82525050565b61242781612972565b82525050565b6124368161297c565b82525050565b60006020820190506124516000830184611ff7565b92915050565b600060408201905061246c6000830185611ff7565b818103602083015261247e8184612130565b90509392505050565b600060608201905081810360008301526124a1818661207b565b905081810360208301526124b58185612006565b905081810360408301526124c9818461207b565b9050949350505050565b600060a0820190506124e860008301886120d9565b6124f560208301876120d9565b612502604083018661241e565b81810360608301526125148185612130565b905081810360808301526125288184612130565b90509695505050505050565b600060208201905061254960008301846120e8565b92915050565b600060408201905061256460008301856120e8565b612571602083018461241e565b9392505050565b600060208201905081810360008301526125928184612130565b905092915050565b600060608201905081810360008301526125b48186612130565b905081810360208301526125c88185612130565b90506125d7604083018461241e565b949350505050565b600060208201905081810360008301526125f881612169565b9050919050565b60006020820190508181036000830152612618816121a9565b9050919050565b60006020820190508181036000830152612638816121e9565b9050919050565b6000602082019050818103600083015261265881612229565b9050919050565b6000602082019050818103600083015261267881612269565b9050919050565b60006020820190508181036000830152612698816122cf565b9050919050565b600060208201905081810360008301526126b88161230f565b9050919050565b600060208201905081810360008301526126d88161234f565b9050919050565b600060208201905081810360008301526126f88161238f565b9050919050565b60006020820190508181036000830152612718816123cf565b9050919050565b6000602082019050612734600083018461241e565b92915050565b600060608201905061274f600083018661241e565b81810360208301526127618185612130565b905081810360408301526127758184612130565b9050949350505050565b6000608082019050612794600083018761241e565b81810360208301526127a68186612130565b905081810360408301526127ba8185612130565b90506127c9606083018461241e565b95945050505050565b60006020820190506127e7600083018461242d565b92915050565b6000604051905081810181811067ffffffffffffffff8211171561281457612813612ae5565b5b8060405250919050565b600067ffffffffffffffff82111561283957612838612ae5565b5b601f19601f8301169050602081019050919050565b6000819050602082019050919050565b6000819050602082019050919050565b600081519050919050565b600081519050919050565b600081519050919050565b6000602082019050919050565b6000602082019050919050565b600082825260208201905092915050565b600082825260208201905092915050565b600082825260208201905092915050565b600082825260208201905092915050565b60006128f882612972565b915061290383612972565b92508282101561291657612915612a58565b5b828203905092915050565b600061292c82612952565b9050919050565b60008115159050919050565b600081905061294d82612b25565b919050565b600073ffffffffffffffffffffffffffffffffffffffff82169050919050565b6000819050919050565b600060ff82169050919050565b60006129948261293f565b9050919050565b82818337600083830152505050565b60005b838110156129c85780820151818401526020810190506129ad565b838111156129d7576000848401525b50505050565b600060028204905060018216806129f557607f821691505b60208210811415612a0957612a08612ab6565b5b50919050565b6000612a1a82612972565b91507fffffffffffffffffffffffffffffffffffffffffffffffffffffffffffffffff821415612a4d57612a4c612a58565b5b600182019050919050565b7f4e487b7100000000000000000000000000000000000000000000000000000000600052601160045260246000fd5b7f4e487b7100000000000000000000000000000000000000000000000000000000600052602160045260246000fd5b7f4e487b7100000000000000000000000000000000000000000000000000000000600052602260045260246000fd5b7f4e487b7100000000000000000000000000000000000000000000000000000000600052604160045260246000fd5b6000601f19601f8301169050919050565b60038110612b3657612b35612a87565b5b50565b612b4281612921565b8114612b4d57600080fd5b50565b612b5981612972565b8114612b6457600080fd5b5056fea2646970667358221220ffb3525189fbc15b0dae08a77b89c9751af0192b4083346012bf560c947467d064736f6c63430008000033",
  "linkReferences": {},
  "deployedLinkReferences": {}
}